:2000000000308A004928000001309600970016080C3C031C1A28170886008609861E1A2876
:20002000960A061F1A28960A861F1A28960A0310970D072816080D3C031D2028FF30960018
:2000400016088D0008009301130F2728342804200D08950014081502031D3028930A33281B
:20006000150894009301242814088D005A2894011408033C031C4728931D402805144128AC
:200080000510851485100310930D940A38280510080084011F30830500306500F0306600D8
:2000A0008316811383120510851004200D0F5928902823280D089100120811020319902869
:2000C00011080B3A03196E28013A03197428063A03197C28F33A031986288A289301372089
:2000E00011089200910190289301372093013720110892009101902893013720930137206A
:200100009301372011089200910190281108920091019028110893003720110892009101CA
:0401200055286300FB
:00000001FF