:020000040000FA
:1000000001288316F03086000030850081138312AA
:10001000851005100030A5004A204A204A20A5017D
:100020003B20A600A60A03190F28A600F43E0319D8
:1000300001282608F53E031921282608A5004A2094
:100040000F280030A5004A200F28A001A00AFE308A
:10005000A10021088600061E3928A00A861E39281C
:10006000A00A061F3928A00AA10D211A2928FF304D
:100070003A2820080800A2010030A2002520A30091
:100080002402031946282308A4003B28A20F3E2877
:100090002408080085100430A2000510A5190514D5
:1000A000A50D8514000000008510A20B4D28051039
:1000B0005A2008002830A2005530A7000000000098
:0C00C0000000A70B5E28A20B5C280800C3
:02400E00F13F80
:00000001FF
